{
  "contractName": "MyBank",
  "abi": [
    {
      "constant": true,
      "inputs": [],
      "name": "getBalance",
      "outputs": [
        {
          "name": "",
          "type": "uint256"
        }
      ],
      "payable": false,
      "stateMutability": "view",
      "type": "function"
    },
    {
      "constant": false,
      "inputs": [
        {
          "name": "ammount",
          "type": "uint256"
        }
      ],
      "name": "deposit",
      "outputs": [],
      "payable": true,
      "stateMutability": "payable",
      "type": "function"
    },
    {
      "constant": false,
      "inputs": [
        {
          "name": "ammount",
          "type": "uint256"
        }
      ],
      "name": "withdraw",
      "outputs": [],
      "payable": false,
      "stateMutability": "nonpayable",
      "type": "function"
    }
  ],
  "bytecode": "0x608060405234801561001057600080fd5b506102ac806100206000396000f300608060405260043610610057576000357c0100000000000000000000000000000000000000000000000000000000900463ffffffff16806312065fe01461005c5780632e1a7d4d14610087578063b6b55f25146100b4575b600080fd5b34801561006857600080fd5b506100716100d4565b6040518082815260200191505060405180910390f35b34801561009357600080fd5b506100b26004803603810190808035906020019092919050505061011d565b005b6100d26004803603810190808035906020019092919050505061022e565b005b60008060003373ffffffffffffffffffffffffffffffffffffffff1673ffffffffffffffffffffffffffffffffffffffff16815260200190815260200160002060000154905090565b60008060003373ffffffffffffffffffffffffffffffffffffffff1673ffffffffffffffffffffffffffffffffffffffff1681526020019081526020016000206000015490508181101515156101db576040517f08c379a000000000000000000000000000000000000000000000000000000000815260040180806020018281038252601e8152602001807f4e6f7420656e6f7567682066756e6473206f6e20616e206163636f756e74000081525060200191505060405180910390fd5b816000803373ffffffffffffffffffffffffffffffffffffffff1673ffffffffffffffffffffffffffffffffffffffff168152602001908152602001600020600001600082825403925050819055505050565b806000803373ffffffffffffffffffffffffffffffffffffffff1673ffffffffffffffffffffffffffffffffffffffff16815260200190815260200160002060000160008282540192505081905550505600a165627a7a72305820a8f1dda2a43cd84252d6610b673a96d5258ca414e4030a96316241b51b82c5f90029",
  "source": "pragma solidity ^0.4.23;\r\n\r\ncontract MyBank {\r\n    struct Account {\r\n        uint256 balance;\r\n    }\r\n\r\n    mapping(address => Account) private accounts;\r\n\r\n    function getBalance() public view returns (uint) {\r\n        return accounts[msg.sender].balance;\r\n    }\r\n\r\n    function deposit(uint ammount) public payable {\r\n        accounts[msg.sender].balance += ammount;\r\n    }\r\n        \r\n    function withdraw(uint ammount) public {\r\n        uint balance = accounts[msg.sender].balance;\r\n        require(balance>=ammount , \"Not enough funds on an account\");\r\n        accounts[msg.sender].balance -= ammount;\r\n    }\r\n}\r\n",
  "sourcePath": "C:\\Users\\CZ Hartmann\\Desktop\\contracts\\contracts\\MyBank.sol",
  "compiler": {
    "name": "solc",
    "version": "0.4.24+commit.e67f0147.Emscripten.clang"
  },
  "schemaVersion": "2.0.1",
  "updatedAt": "2018-11-05T16:05:12.068Z"
}